:020000040800F2
:1000000090B201200D020008A74000080922000854
:10001000A5400008F3020008694D00080000000038
:10002000000000000000000000000000E1410008A6
:1000300065040008000000001B4100084D43000853
:1000400027020008270200082702000827020008EC
:1000500027020008270200082702000827020008DC
:1000600027020008270200082702000827020008CC
:100070009D03000827020008A903000827020008C2
:1000800027020008270200082702000827020008AC
:10009000270200082702000827020008270200089C
:1000A00027020008DD440008270200082702000894
:1000B000270200082702000827020008270200087C
:1000C000270200082702000827020008270200086C
:1000D00027020008514D0008270200085D4D000866
:1000E000270200082702000827020008270200084C
:1000F000270200082702000827020008270200083C
:10010000270200082702000827020008270200082B
:100110002702000827020008E94400082702000817
:10012000270200082702000827020008270200080B
:1001300027020008270200082702000827020008FB
:1001400027020008270200082702000827020008EB
:100150002702000827020008B5030008270200084C
:1001600027020008270200082702000827020008CB
:1001700027020008270200082702000800000000EC
:1001800027020008270200082702000827020008AB
:10019000270200082702000827020008270200089B
:1001A000270200082702000827020008270200088B
:1001B000270200082702000827020008270200087B
:1001C000270200082702000800000000270200089C
:1001D000270200082702000827020008270200085B
:1001E000270200082702000827020008270200084B
:1001F0002702000827020008DFF80CD000F03CF8C6
:10020000004800471D5C000890B201200648804766
:1002100006480047FEE7FEE7FEE7FEE7FEE7FEE7EB
:10022000FEE7FEE7FEE7FEE71D440008F9010008CF
:1002300040EA01039B0703D009E008C9121F08C068
:10024000042AFAD203E011F8013B00F8013B521EE8
:10025000F9D27047D2B201E000F8012B491EFBD25F
:1002600070470022F6E710B513460A4604461946C1
:10027000FFF7F0FF204610BD064C074D06E0E06892
:1002800040F0010394E8070098471034AC42F6D3DD
:10029000FFF7B6FF486300086863000870B58C1864
:1002A00010F8015B15F0070301D110F8013B2A118A
:1002B00006D110F8012B03E010F8016B01F8016B77
:1002C0005B1EF9D12B0705D40023521E0DD401F873
:1002D000013BFAE710F8013BCB1A921C03E013F83C
:1002E000015B01F8015B521EF9D5A142D8D3002071
:1002F00070BDFEE71E484FF480621E4B012170B5B1
:10030000A0F82024002493ED020A1C4B08251A4E65
:100310004FF41652BCEEC00A80ED000AC0F8283433
:10032000174BC0F82434174BC0F82C3400F6780370
:1003300080F8331480F8344486ED000A124CA0F89B
:100340005C58C0F86448114CC0F83C24C0F86048C0
:100350000F4CC0F8684880F86F187260D960596017
:1003600019650C48996418640B48C3F8840070BD83
:10037000CC770120446B012000000020892A00086E
:100380008B2A00080D2200088D2A0008992A0008EF
:1003900059220008CD2900084D2A0008014800F024
:1003A000BFB800000C770120014800F0B9B8000088
:1003B0006C770120014800F0B3B80000AC76012052
:1003C00001681823CAB2103AB2FBF3F2054B6FF37F
:1003D0000901032A9B5CC36500D9091D8165084694
:1003E000704700002E61000810B583694FF0C0749B
:1003F000826A0146002053B1B3F5005F15D072B197
:10040000012A0CD0022A0AD0032A09D104E01AB129
:10041000012A06D0022A03D1C96AC90100D50120E8
:1004200010BDC96AA142FAD010BD002AF7D0012A36
:10043000F2D0022AF3D0032AF3D010BD30B50468FD
:10044000256825F480252560046863608368402B57
:10045000036803D099600068C26030BD9A6000688C
:10046000C16030BD704770472DE9F041876D04468B
:1004700000F0CCFA064694F835000025022806D094
:1004800080206065012084F83450BDE8F081206848
:10049000016821F0160101602068416921F08001A6
:1004A0004161206C08B9A06C20B12068016821F07E
:1004B000080101602068016821F0010101600CE081
:1004C00000F0A4FA801B052807D9202161650320CC
:1004D00084F8345084F83500D7E720680068C007F6
:1004E000EED194F85C203F2001219040B86084F860
:1004F000345084F835100020C7E790F835100229F1
:1005000003D08021416501207047052180F8351016
:100510000068016821F001010160002070470000BF
:100520002DE9F84304464FF00008654B0820CDF84C
:1005300000804FF41652A56D94F85C101B682E686D
:10054000B3FBF2F700FA01F131420FD021680A68DB
:1005500052070BD50A6822F004020A6094F85C1076
:100560008840A860606D40F00100606594F85C1000
:1005700054488840304208D021684969090604D5AA
:10058000A860606D40F0020060654E4894F85C1011
:10059000C01C8840304208D021680968890704D50A
:1005A000A860606D40F00400606594F85C10102055
:1005B0008840304218D021680968090714D5A8601E
:1005C00020680168490304D50068000308D5A16CC0
:1005D00007E00168C90503D4016821F00801016042
:1005E000216C09B12046884794F85C1020204FF018
:1005F00001098840304231D021680968C9062DD5EB
:10060000A86094F8350005282068016806D04903E1
:1006100047D5006800031DD4616C1CE021F0160171
:1006200001602068416921F080014161206C08B9B6
:10063000A06C20B12068016821F00801016094F8E5
:100640005C303F229A40AA6084F8348084F8359068
:10065000216D1FE0E16B09B120468847606D0028DD
:100660002BD0606DC00714D0052084F835002068B9
:10067000016821F0010101600098401C0090B8421F
:1006800003D820680068C007F6D184F8348084F865
:100690003590E16C002910D001B02046BDE8F04350
:1006A00008470168C905D5D4036823F01003036027
:1006B00084F8348084F83590CCE7BDE8F8830000F6
:1006C00060740120010080002DE9F047044600F02D
:1006D0009DF9054664B14FF0000984F83490022179
:1006E00084F835102068016821F0010101600EE0F6
:1006F0000120BDE8F08700BF00F088F9401B052805
:1007000005D920216165032084F83500F1E72068D0
:100710000068C007F0D1D4E90020D4E90251D4E93F
:10072000043C284304F1180519430843116895E86F
:10073000E00140EA0C001C4B2843194040EA060047
:1007400040EA0700B8F1040F40EA010003D1D4E900
:100750000B1319430843106020680126656A40693D
:10076000042D20F0070045EA00050CD1D4E90A0168
:10077000054341B12046FFF737FE20B140206065B8
:1007800084F83560B4E7206845612046FFF718FE1D
:1007900094F85C303F229A408260C4F8549084F808
:1007A00035600020A5E700003F8010E02DE9F04112
:1007B000044690F8340000250128A66D0ED094F868
:1007C00035C00127002084F83470BCF1010F07D038
:1007D000022584F834002846BDE8F0810220FBE7BA
:1007E000022784F8357060652046FFF727FE94F8ED
:1007F0005C103F208840B0602068016841F016011D
:1008000001602068416941F080014161206C20B1A4
:100810002068016841F0080101602068016841F02A
:1008200001010160D7E700002DE9F84FDFF89CE1F6
:1008300000224FF001084FF0030B4FF00F0A00BFEA
:100840000B6808FA02F42340A34271D14D68022DCF
:1008500001D0122D0FD1D5080E69570700EB850581
:10086000A9462D6AFF0E0AFA07FCBE4025EA0C05D0
:100870002E43C9F820600F79550006680BFA05FC75
:1008800007F0030726EA0C06AF40374307604E68BF
:10089000012E05D0022E03D0112E01D0122E0ED122
:1008A0008668CF6826EA0C06AF4037438760466803
:1008B0000F79A643C7F30017974037434760C468D2
:1008C0008E6824EA0C04AE402643C6604C68E400FF
:1008D00075D53F4C256845F480452560246822F095
:1008E0000306950704F4804400943A4C2D0F2644E7
:1008F000D6F80848DFF8E0C00AFA05F7604524EAB0
:10090000070401D100272EE0344FB84201D101275E
:1009100029E0334FB84201D1022724E0314FB842D9
:1009200001D103271FE0304FB84202D104271AE05B
:1009300045E02E4FB84201D1052714E02C4FB842B4
:1009400001D106270FE02B4FB84201D107270AE05B
:10095000294FB84201D1082705E0284FB84201D1FC
:10096000092700E00A27AF4027437546C6F80878F4
:100970004E68DEF80040F60324EA030400D51C4369
:10098000124E2C60361D4D683468AD0324EA030412
:1009900000D51C430D4F346008374D683C68ED02AC
:1009A00024EA030400D51C43084D3C600C354E6816
:1009B0002C68B60224EA030400D51C432C60521CA8
:1009C000102AFFF43DAFBDE8F88F0000003C014065
:1009D0004438024000300140000002400004024060
:1009E00000080240000C02400010024000140240C7
:1009F00000180240001C0240002002400024024077
:100A00000AB1816170470904FBE7000001480068F2
:100A1000704700006474012002480168491C0160AD
:100A20007047000064740120032010B500F074F8D2
:100A3000002000F005F800F017F8002010BD0000BD
:100A4000084910B504464FF47A700968B1FBF0F01C
:100A500000F027FF00222146501E00F03DF8002044
:100A600010BD000060740120032010B500F054F8A0
:100A700000226FF00B00114600F02EF800226FF0FC
:100A80000A00114600F028F800226FF00900114614
:100A900000F022F80022501F114600F01DF800223D
:100AA000101F114600F018F80022901E114600F0A9
:100AB00013F80022BDE81040501E114600F00CB89B
:100AC000410900F01F028900012001F1E02190405E
:100AD000C1F80001704700000E4BF0B41B680D46D2
:100AE000C3F30223C3F10706042E00D90426191DFF
:100AF000072901D2002300E0DB1E012404FA06F1DD
:100B00009C40491E2940641E994014402143F0BC7A
:100B100003F0CABA0CED00E0064900F0070210B578
:100B20004FF6FF040868044B204040EA02201843B7
:100B3000086010BD0CED00E00000FA051848F8B59B
:100B4000016841F0805101600068164C00F080504F
:100B50000090206840F480302060FFF757FF4FF48A
:100B60007A76054605E000BFFFF750FF401BB04214
:100B70000FD86068C003F7D5206840F400302060CB
:100B8000FFF744FF054606E0FFF740FF401BB04279
:100B900001D90320F8BD60688003F5D50020F8BDB9
:100BA00040380240007000402DE9F84F04460078BC
:100BB000DFF888844FF000063546C0070ED0D8F81D
:100BC000001021F40001C8F80010D8F80010626B82
:100BD0001143C8F80010606B00B901262068DFF8E7
:100BE0005C94000309F1840910D5E26BD9F8001078
:100BF00021F440111143C9F80010E06BB0F5801FDB
:100C000001D010B102E0012600E001252068C002F9
:100C100010D5226CD9F8001021F440011143C9F815
:100C20000010206CB0F5800F01D010B102E0012659
:100C300000E001252068C10100D50126800658D5B5
:100C4000FE483830016841F0805101600068DFF8EB
:100C5000F0A300F080500090DAF8001041F48071A9
:100C6000CAF80010FFF7D2FE074604E0FFF7CEFEF9
:100C7000C01B64287ED8DAF80000C005F6D5EF4F17
:100C80006837386810F4407023D0218E01F4407129
:100C900081421ED03868396820F4407041F48031B8
:100CA0003960396821F48031396038603868C007AC
:100CB0000FD0FFF7ABFE824641F2883B06E000BF53
:100CC000FFF7A4FEA0EB0A015945D3D83868800786
:100CD000F6D5216BC1F30120032840467ED0016880
:100CE00021F4F8110160218E3868C1F30B0108432B
:100CF00038602078C0060BD5D9F8001021F080713B
:100D0000C9F80010D9F80010A26B1143C9F80010FF
:100D10002188CA488830490405D5626E016821F4EB
:100D20004031114301602188090405D5A26E016894
:100D300021F44021114301602168C90305D5E26E09
:100D4000016821F44011114301602168890305D530
:100D5000226F016821F440011143016021784906A6
:100D600005D5626C016821F003011143016021780F
:100D7000090600E01EE105D5A26C016821F00C0116
:100D8000114301602188C90505D5E26C016821F095
:100D90003001114301602188890505D5226D016864
:100DA00021F0C001114301602188490505D5626D1C
:100DB000016821F44071114301602188090505D5BE
:100DC000A26D016821F44061114301602188C904CA
:100DD00007D5E26D016821F4405100E021E01143A4
:100DE00001602188890405D5226E016821F4404103
:100DF000114301602168490205D5A26F016821F005
:100E00008061114301602168890213D5E26F016896
:100E100021F0006111430160E16FB1F1006F08D072
:100E200008E0884A0368114023F4F8120A4302607C
:100E300059E7012521680A0700D50125490305D591
:100E4000626F016821F0407111430160216809025D
:100E500006D5D4F88020016821F08051114301604B
:100E60002168490106D5D4F88420016821F0005199
:100E7000114301602068000108D5D4F88820D9F812
:100E8000001021F000711143C9F800102068C00063
:100E900008D5D4F88C20D9F8001021F080611143D6
:100EA000C9F80010012E4FF4403B4FF0706A03D098
:100EB0002068B0F1007F7CD1604E083E306820F0A1
:100EC00080603060FFF7A2FD074604E0FFF79EFD5B
:100ED000C01B64286ED85948083800680001F5D452
:100EE0002078DFF858E1C0070EF17C0E35D0606B3A
:100EF00098BBDEF800209BFAABF7DEF800009AFA08
:100F0000AAFCB7FA87F847F6C07602F44032616867
:100F100096FAA6F722FA08F2BCFA8CF8B7FA87FC20
:100F20009BFAABF600F0706001FA0CF1B6FA86F6A7
:100F30009AFAAAF720FA08F04FF0E043B24093FA89
:100F4000A3FCA668B7FA87F71143B840BCFA8CF245
:100F5000014396403143CEF800102068010303D5C9
:100F6000E16BB1F5801F05D0C00243D5206CB0F510
:100F7000800F3FD1DEF800109BFAABF64FF0E04255
:100F800047F6C07CB6FA86F7DEF8006001F440311F
:100F900060689CFAACFCF9409AFAAAF79BFAABF3AA
:100FA000B7FA87F892FAA2F7BCFA8CFCB7FA87F77F
:100FB00001E097E012E100FA0CF0B3FA83FCE36879
:100FC00006F0E04601FA0CF192FAA2F2FE4003FAB2
:100FD00008F3B2FA82F70843BE4018433043CEF814
:100FE0000000D9F80000616A20F01F00491E084384
:100FF000C9F800002068C0013DD5DEF800109AFA5B
:10100000AAF0DEF8003047F6C07601F07061B0FA61
:1010100080F09BFAABF7C1404FF0E04C009196FA9C
:10102000A6F621699CFAACFCB7FA87F7B6FA86F8FF
:101030009AFAAAF6B940BCFA8CFC05E008380240DE
:1010400000700040FFFCFF0F60684FF0E04703F0C6
:10105000E042B6FA86F600FA08F00843009997FADB
:10106000A7F722FA0CF2B140B7FA87F60843B2406C
:101070001043CEF800002068800122D547F6C070EA
:1010800004F1080190FAA0F260689BFAABFCB2FA96
:1010900082F346C9BCFA8CFC98409AFAAAF806FA80
:1010A0000CF64FF0E047B8FA88FC97FAA7F7304300
:1010B00002FA0CF2B7FA87F61043B1400843CEF8B3
:1010C00000007F4E306840F080603060FFF79EFC8B
:1010D000074604E0FFF79AFCC01B64287ED83068FE
:1010E0000001F7D5002D7AD0754D286820F080508A
:1010F0002860FFF78BFC064605E000BFFFF786FC83
:10110000801B64286AD86E480068C0438000F5D50B
:101110006B48216888300A0301D5E26B1AB1C90215
:101120003ED5216CE1BB02689BFAABF64FF0E04381
:1011300047F6C071B6FA86F7066802F4403291FAB3
:10114000A1FC6169FA409AFAAAF7BCFA8CFC9BFAF6
:10115000ABF501FA0CF1B7FA87F893FAA3F7B5FAF1
:1011600085FCA56906F0E04602FA0CF2B7FA87F7AB
:1011700093FAA3F3FE4005FA08F5B3FA83F311439B
:101180009E402943314301606FF0FF07D9F80010FA
:10119000A36A21F4F85107EB03231943C9F800109F
:1011A0002168890237D5E16FB1F1006F33D1016851
:1011B0009AFAAAF205684FF0E04847F6C0769BFA23
:1011C000ABFC96FAA6F798FAA8F601F07061B6FAA9
:1011D00086F6BCFA8CFCB2FA82F201E067E06DE0C0
:1011E00021FA02FE216AB7FA87F762699AFAAAF32E
:1011F00005F0E04501FA0CF1BA40B3FA83F398FA2E
:10120000A8F7F5400A430EFA03F1B7FA87F30A4349
:101210009D402A4302602178090739D50168D0F83A
:1012200000809BFAABF79AFAAAFC47F6C07308F461
:101230004032B7FA87F893FAA3F7636922FA08F203
:10124000BCFA8CF8B7FA87FC9BFAABF601F0706138
:1012500003FA0CF3B6FA86F69AFAAAF721FA08F11D
:101260004FF0E045B24095FAA5FCE669B7FA87F77A
:101270001343B940BCFA8CF20B43964033430360EE
:10128000D9F80000E16A20F440300843C9F80000B2
:101290000B4C206840F080502060FFF7B7FB0546FC
:1012A00008E000BFFFF7B2FB401B642802D903200F
:1012B000BDE8F88F2068C0438000F3D40020F7E732
:1012C000003802402DE9F047DFF84C8105460E4614
:1012D000D8F8000000F00F00B0420CD2D8F800108F
:1012E00021F00F013143C8F80010D8F8000000F0D9
:1012F0000F00B04265D12878484C800705D5A96811
:10130000206820F0F000084320602878C00747D00C
:10131000424968680839012816D00968022816D0A1
:10132000890700294DDA216821F00301014321607A
:10133000FFF76CFB6968074641F2883001290FD03E
:101340000229814619D027E009688903E9E7890164
:10135000E7E700BFFFF75AFBC11B494501D918E079
:1013600081462068C0F381000128F3D118E000BF56
:10137000FFF74CFBC11B49450BD82068C0F3810027
:101380000228F5D10CE000BFFFF740FBC11B494527
:1013900002D90320BDE8F087206810F00C0FF3D1CC
:1013A000D8F80010404601F00F01B1420BD9016896
:1013B00021F00F0131430160006800F00F00B042DE
:1013C00001D00120E6E72878400705D5E9682068C4
:1013D00020F4E050084320602878000706D52869EB
:1013E000216821F4604141EAC000206000F052F819
:1013F0002168F02292FAA2F201F0F001B2FA82F230
:10140000D140074A515CC840064908600020FFF7F8
:1014100017FB0020BEE70000003C024008380240F5
:1014200016610008607401200148006870470000E0
:101430006074012008484FF4E052016892FAA2F269
:10144000064801F4E051B2FA82F2D140044A006841
:10145000515CC840704700000838024060740120A9
:101460002661000808484FF46042016892FAA2F22F
:10147000064801F46041B2FA82F2D140044A0068A1
:10148000515CC84070470000083802406074012079
:10149000266100081D4930B51D48096811F00C018E
:1014A0001AD01C4B042916D0082915D1174947F624
:1014B000C072091F0C680D6804F03F046D020CD562
:1014C0000D68B3FBF4F092FAA2F31540B3FA83F27D
:1014D000D54068430BE0184630BD0B68B0FBF4F014
:1014E00092FAA2F41340B4FA84F2D3405843096844
:1014F0004FF4403292FAA2F201F44031B2FA82F291
:10150000D140491C4900B0FBF1F030BD0838024021
:101510000024F400809698002DE9F84FDFF86093DE
:10152000054600780027A9F1040AAAF10404C007BF
:101530004CD0D9F800104846C1F38101012908D0E8
:101540000068C0F3810002280AD1DAF800004002E6
:1015500006D52068800339D56868002870D035E04A
:101560006868B0F5803F0BD010B1B0F5A02F11D056
:10157000206820F480302060206820F4802002E081
:10158000206840F480302060686890B1FFF73EFA30
:1015900006460AE0206840F480202060F0E700BFA3
:1015A000FFF734FA801B642876D820688003F7D5CB
:1015B0000CE0FFF72BFA064605E000BFFFF726FA1E
:1015C000801B6428F0D820688003F7D4287880072F
:1015D00046D5D9F8001048464FF0F80811F00C0F26
:1015E00008D00068C0F3810002280AD1DAF80000B0
:1015F000400206D42068800716D5E86801281FD16C
:1016000012E0E868002820681BD040F0010020604C
:10161000FFF7FCF9064604E0FFF7F8F9801B022803
:10162000C2D820688007F7D52869226898FAA8F1FF
:10163000B1FA81F1884022F0F801014321600FE006
:101640001BE120F001002060FFF7E0F9064604E00E
:10165000FFF7DCF9801B0228A6D820688007F7D4A2
:101660002878000729D5864869696C3000298046AA
:10167000016812D041F001010160FFF7C7F9064689
:1016800005E000BFFFF7C2F9801B022804D8D8F894
:1016900000008007F6D510E089E021F0010101602B
:1016A000FFF7B4F9064604E0FFF7B0F9801B022803
:1016B0007DD8D8F800008007F6D4287840076BD58D
:1016C000DFF8BC8108F13808D8F80000C0000BD45E
:1016D000D8F8001041F08051C8F80010D8F8000088
:1016E000012700F08050009066480168C90512D4B7
:1016F0000168834641F480710160FFF787F906466F
:1017000005E000BFFFF782F9801B64284FD8DBF8A3
:101710000000C005F6D55A4EA868683601280AD0E0
:1017200008B1052811D0306820F001003060306821
:1017300020F0040002E0306840F001003060A8684A
:10174000A0B1FFF763F983460CE0306840F0040075
:101750003060F0E7FFF75AF9A0EB0B0141F2883057
:10176000814224D830688007F4D50EE0FFF74EF9A7
:10177000834607E0FFF74AF9A0EB0B0141F28830FE
:10178000814272D830688007F4D42FB1D8F80010A5
:1017900021F08051C8F80010A869E8B3D9F800100A
:1017A000C1F38101022968D00228206800E05CE0D2
:1017B00020F08070206003D0FFF728F9054657E03D
:1017C000FFF724F9064604E0FFF720F9801B022802
:1017D0004BD820688001F7D447F6C0704FF0FF3730
:1017E000D5E9091290FAA0F34FF44036D5E9070C79
:1017F00096FAA6F607EB5202B3FA83F34FF070673E
:10180000B6FA86F8994097FAA7F702FA08F24FF06D
:10181000E04640EA0C0000E02DE01143D5E90B3230
:1018200096FAA6F5B7FA87F7B5FA85F5BB400843EF
:10183000AA4018431043CAF80000206840F08070A6
:101840002060FFF7E3F8054605E000BFFFF7DEF88C
:10185000401B022809D820688001F7D50BE000BFA3
:10186000FFF7D4F8401B022802D90320BDE8F88F07
:1018700020688001F4D40020F8E70120F6E700009A
:10188000083802400070004004284FF0E020016951
:1018900003D021F004010161704741F00401FAE72F
:1018A0007047401EB0F1807F10B501D3012010BDFC
:1018B0004FF0E02460610F21601702F0F5FB00207B
:1018C000A0610721216110BD10B5FFF7E9FF10BD30
:1018D0007047704770B590F83C20012A1FD0012254
:1018E00080F83C2002680F4C5368A242956802D0F1
:1018F0000D4CA24203D14C6823F4700323430C68BF
:101900008968002623F070031C43546025F080058D
:1019100002682943916080F83C60304670BD022027
:1019200070BD0000000001400004014010B504003B
:1019300003D094F83D0010B107E0012010BD002055
:1019400084F83C00204600F00DF8022084F83D00A9
:101950002068211D02F0CEFD012084F83D0000200A
:1019600010BD000008B501681248814208D1124834
:10197000016841F001010160006800F001000BE026
:101980000D480E4A001F914208D1016841F008013C
:101990000160006800F00800009008BD084A91420C
:1019A000FBD1016841F010010160006800F01000F7
:1019B000F2E700000000014044380240000C004003
:1019C00000100040022180F83D10012201680B68E0
:1019D00043F001030B6080F83D2000207047016850
:1019E000CA6842F00102CA600068016841F0010162
:1019F000016000207047000070B5044690F83C007C
:101A0000012817D03A4E012584F83C50022084F872
:101A10003D0022689068304020F47F409060086864
:101A2000502839D00DDC20285BD005DC98B3102875
:101A300043D153E0022070BD302855D040283CD11E
:101A400041E0602830D070280CD0B0F5805F03D022
:101A5000B0F5005F31D112E02068254A703281680C
:101A6000114016E04A682068D1E9021302F0A8FD8F
:101A700021688868304040F0770088601DE04A683F
:101A80002068D1E9021302F09BFD2068816841F4CF
:101A90008041816011E01EE0CA684968206802F058
:101AA000A0FD2068502106E0CA684968206802F05D
:101AB000A9FD2068602102F08CFD002084F83D50D3
:101AC00084F83C0070BDCA684968206802F089FD4E
:101AD00020684021EFE720680021ECE72068102112
:101AE000E9E720682021E6E720683021E3E70000ED
:101AF00088FFFEFF704770B5044600680025016945
:101B0000C943890715D4C168C943890711D4EA1E9E
:101B1000026101212177206880698007204602D078
:101B2000FFF7E8FF04E000F0A5F8204600F0A3F876
:101B3000257720680169C943490717D4C168C9439B
:101B4000490713D402216FF0040202612177206853
:101B5000806910F4407F204602D0FFF7CBFF04E0FD
:101B600000F088F8204600F086F8257720680169A3
:101B7000C943090716D4C168C943090712D404210F
:101B80006FF00802026121772068C0698007204653
:101B900002D0FFF7AFFF04E000F06CF8204600F041
:101BA0006AF8257720680169C943C90617D4C16856
:101BB000C943C90613D408216FF0100202612177CE
:101BC0002068C06910F4407F204602D0FFF792FFE2
:101BD00004E000F04FF8204600F04DF8257720682B
:101BE0000169C943C90708D1C168C943C90704D1FC
:101BF000891E0161204600F03FF820686FF08005E3
:101C00000169C943090607D4C168C943090603D459
:101C100005612046FFF75CFE20680169C943C905DC
:101C200007D4C168C943090603D405612046FFF7FC
:101C30004FFE20680169C943490609D4C168C943F8
:101C4000490605D46FF040010161204600F028F8F4
:101C500020680169C94389060BD4C168C943890654
:101C600007D46FF0200101612046BDE87040FFF706
:101C700030BE70BD7047704706498842064901D1A1
:101C8000086C04E0054A904202D1D1F88400004774
:101C9000704700009C740120448001201C750120C5
:101CA000704710B5044690F8690021280ED12068CD
:101CB000816809060AD5816821F080018160206E63
:101CC00008B1FEF7D1FB204602F09EFE94F86A00B0
:101CD00022280ED12068816849060AD5816821F042
:101CE00040018160606E08B1FEF7BEFB204602F045
:101CF0007DFE002010BD704770B501680446C869BC
:101D00000A688B6810F00F0F5CD003F0010502F435
:101D100090762E4369D0C60707D0D60505D5012693
:101D20000E62E16E41F00101E166810708D5D90735
:101D300006D0266802213162E16E41F00401E166BD
:101D4000410708D5D90706D0236804211962E16E3E
:101D500041F00201E16601070AD502F020012943A2
:101D600006D0236808211962E16E41F00801E1669E
:101D7000E16E002932D0800604D5900602D52046B7
:101D800002F04BFEE06E000703D420688068400636
:101D900025D5204602F02AFE2068816849061AD51A
:101DA000816821F040018160606EA0B12F4901651A
:101DB000606EFEF7A2FB002810D0606E016DBDE8DA
:101DC00070400847830610D593060ED52046BDE81F
:101DD000704002F022BE2046FFF78DFF70BD204606
:101DE000FFF789FF0020E06670BD03062FD51306BC
:101DF0002DD594F869002128F6D1B4F8520020B10D
:101E0000A068B0F5805F0AD00BE0086820F0800081
:101E100008602068016841F04001016070BD2069E0
:101E200060B1E06C411CE16421680078C1F82800D1
:101E3000B4F85200401EA4F8520070BDE06C008857
:101E4000C0F308008862E06C801CE064F0E74006A4
:101E5000F3D55006F1D50B682022204623F040032D
:101E60000B6084F8692000F0A9F970BD49490008A9
:101E700010B5040003D094F8690010B107E0012008
:101E800010BD002084F86800204600F027F82420C8
:101E900084F869002068016821F001010160204692
:101EA00002F0F8FD0128EBD0606A10B1204602F084
:101EB000C7FC2068416821F4904141602068816836
:101EC00021F02A0181602068016841F00101016070
:101ED0002046BDE8104002F017BD00002DE9F04F8C
:101EE00006465148DFF844B1022101224FF0400A72
:101EF000D6F800C0032307250024844587B04FF09F
:101F000000674FF4806929D14948D0F800C04CF0EF
:101F1000100CC0F800C0006800F0100005905802D6
:101F20008DE82F0069465846FEF77EFC414D424938
:101F30002846C5E903496C61AC61EC612C626C62B6
:101F400085E88204FEF7C0FB18B19E213BA002F099
:101F50000CFF3566AE6307B0BDE8F08F3448DFF89C
:101F6000EC80001FC4450FD1046844F400340460C1
:101F7000006800F4003005900C208DE82F006946C1
:101F80005846FEF751FCE6E7DFF8C480C445E2D1CD
:101F9000D0F800C04CF4802CC0F800C0006800F4F9
:101FA000802005904FF440608DE82F002948694655
:101FB000FEF73AFC1F4D2849603528468A152960EE
:101FC000C5E90174C5E903496C615102C5E90642DE
:101FD000C5E90814FEF778FB18B1DF2117A002F05D
:101FE000C4FEDFF85080756608F1C008AE63404655
:101FF000194A3032C0E90349C8F81440C8F81840FB
:10200000C8F81C40C8F8204088E88404C8F8244078
:10201000FEF75AFB18B1F12108A002F0A6FEC6F89F
:102020006080C8F8386096E7001001400000024068
:1020300044380240AC760120B86402402E2E2F5363
:1020400072632F75736172742E6300000044004048
:1020500000480040000802402860024070B5044675
:1020600090F86A0020283AD1B1B3AAB394F8680076
:10207000012834D0012384F8683061650025A4F874
:1020800058202220E56684F86A00636E1548D863FC
:10209000636E15481864636E1448D8641346606E06
:1020A00005650846666E0246216830462431FEF713
:1020B0007DFB84F868502068016841F480710160FC
:1020C0002068816841F0010181602068816841F0E9
:1020D00040018160002070BDFFE70120FBE7022086
:1020E000F9E70000A7490008E34900085D49000836
:1020F00010B590F86A30202B3FD1C9B1C2B190F829
:102100006830012B39D083680124416580F868402C
:10211000A0F85820A0F85A20B3F5805F4FF0FF01D7
:1021200008D04FF07F0253B1B3F1805F0CD011E0C3
:10213000012010BD026922B940F2FF1101E00369DC
:1021400033B9A0F85C1005E0016909B13F21F8E757
:10215000A0F85C2000212222C16680F86A2080F865
:10216000681001688A6842F001028A6000680168AC
:1021700041F490710160002010BD022010BD0000EC
:102180000A4910B5884208D100F07EFCBDE8104035
:10219000074901220548FFF7ABBF0649884203D132
:1021A000BDE8104000F072BC10BD00005C7501205D
:1021B000EC7701203C760120704700000F494FF07A
:1021C000010210B588420E490BD1006E0023006851
:1021D000046824F00104046081F8332481F8343465
:1021E00010BD084B9842FBD1006E0068036823F0D5
:1021F0000103036081F86F2810BD00005C750120A9
:10220000CC7701203C760120FEE7000010B5104C91
:102210002068C169C943C90618D51021016220464A
:10222000FFF73FFD616E01230A480968B0F82024DA
:102230004968511A491EA0F8301400F1200180F8B5
:1022400032342046BDE81040FFF708BF10BD000043
:102250005C750120CC77012010B5114C2068C16954
:10226000C943C9061BD5102101622046FFF719FD9D
:10227000606E01210B4C0068B4F85C284068101AAD
:10228000A4F86C0884F86E1804F65C0400F0FEFBF9
:102290002288BDE8104004490148FFF7DFBE10BDA9
:1022A0003C760120CC770120287C01200248B2EE48
:1022B000040A80ED0A0A70476408002070B50546DC
:1022C000184801220C4603212DED028B036A284693
:1022D000DFED138A9847D5ED020AB0EE408A95EDFE
:1022E000010AF1EE600AB7EEE01AB1EE400AB7EE6D
:1022F000C00A02F059FFB7EEC00B84ED000A95ED5D
:10230000000AC0EE080AB7EEE00A02F049FDB7EE97
:10231000C00B84ED010AC4ED028ABDEC028B70BDD6
:102320000000000068740120024901220B6A0321A9
:1023300018470000687401200148C07C00F0BAB959
:10234000446B01202DE9F04705000C462DED028B72
:1023500084B0DDE90F76DDF8389040D0012D4AD108
:1023600000F072F931484FF07E5A9FED318AF7EE56
:10237000000AA846B0F8FC1003EB810C01EB410108
:102380000CED010A92ED000A00EB810181ED000ADB
:10239000B0F8FC1092ED010A01EB410100EB810164
:1023A00081ED010AB0F8FC1092ED020A01EB410147
:1023B00000EB810181ED020AB0F8FC10491C89B2E2
:1023C000A0F8FC10D0F800C1D44519D1A1421DD10C
:1023D000A0F8FC80C0ED410A80ED408A16E000F0D4
:1023E00033F983ED000ACDF800902146CDE901765E
:1023F000284600F01FF804B0BDEC028BBDE8F08762
:10240000A14203D1A0F8FC80C0ED410A8046D0F87B
:1024100004015045EFD1CDF800902146CDE9017679
:10242000284600F007F888ED418AE4E7900800208C
:1024300000000000F0B507462DED048B87B010A812
:1024400090E87000002000900190029092ED000A48
:10245000B5EEC00AF1EE10FA01D0012100E0002132
:1024600092ED010AB5EEC00AF1EE10FA02D04FF07B
:10247000010C01E04FF0000C92ED020A41EA0C0160
:10248000B5EEC00AF1EE10FA02D04FF0010C01E0F7
:102490004FF0000C51EA0C017DD08FB94FEA0D07C7
:1024A00002EB800CD3ED000A9CED000A07EB800CD8
:1024B000411C20EE200A88B203288CED000AEFD3DD
:1024C0004B4F0122032168463B6A984703F000FE08
:1024D000F0EE408AB6EE000A28EE800AB7EEC00A97
:1024E000B0EE409B02F040FFB7EEC08BB0EE490B60
:1024F00002F092FFB7EEE81AF5EEC08AF1EE10FA9C
:1025000080EE012BB7EEC20B66D094ED012ADDED13
:10251000021AD4ED023A9DED011A21EE822A94EDC1
:10252000033ADDED000AD4ED002A01EE632A201DF6
:1025300000EE832A22EE002A08EE222A8DED032ADD
:1025400094ED022AD4ED003A94ED033A20EE822A6B
:10255000D4ED012A01EEE32A01EE032A22EE002A3D
:1025600008EE222A8DED042A94ED002AD0EC032AED
:1025700021EE022A00EEE22A01EEA32A22EE002A30
:1025800008EE032A8DED052A94EC042A60EEC20AB7
:1025900041EE620A00E01FE041EEC30A012204217D
:1025A00003A820EE800A08EE230A8DED060A3B6A96
:1025B000984703F08DFD5FF0000003A901EB800355
:1025C000421CD3ED000A04EB800390B280EE801A27
:1025D000042883ED001AF1D32946204603F078FB46
:1025E0003146284603F0E8FB07B0BDEC048BF0BD94
:1025F00068740120FEB51048104BA0F134010C1F87
:10260000A0F110020092CDE90110E56E0221002038
:102610000B4AA847266F201D04F15002074B0949B9
:102620001546B047636F03B004F144012846034ADE
:10263000BDE8F040184700000C08002064080020A6
:10264000B08D012078920120144915489FED151A8C
:102650000968D0ED010A00EE101AB8EE400AB4EE97
:10266000E00AF1EE10FA06D2DFED0F1A71EEE00A81
:1026700070EE800A01E070EE600A0C49C0EE811A2B
:10268000C0ED001AD1ED030A60EEA10AC0ED000A08
:1026900080ED010A9FED060A70470000240C0040FF
:1026A000CC07002020BC3E4C00FF7F47446B01203C
:1026B0000AD7A33B70B5194C01461A48022904F108
:1026C000280604F138052DED028B9FED158A1ED2E8
:1026D000DFE801F001052946FFF7F0FD03E01249AC
:1026E0002A46FFF721FE211D284603F025FA201D6A
:1026F000314603F0BFFB84ED138A84ED128A84ED2A
:10270000118A84ED168A84ED158A84ED148ABDEC55
:10271000028BBDE87040FFF797BF0000D407002090
:102720000000000078920120409701201C489FED96
:102730001D0B1E4B90ED041A19460A46B7EEC11A3E
:1027400001F5806102F5006281EE002BB7EEC21B3D
:1027500083ED001A90ED051AB7EEC11A81EE002B39
:10276000B7EEC21B83ED011A90ED061AB7EEC11A3F
:1027700081EE002BB7EEC20B83ED020A90ED000A4A
:1027800081ED320A81ED330A81ED340A90ED070ABA
:1027900082ED640A82ED650A82ED660A70470000E8
:1027A000D40900206666666666A64C40B08D01209E
:1027B00091ED000AD0ED000A92ED001A00EE810AB8
:1027C00081ED000A91ED010AD0ED010A92ED001AA7
:1027D00000EE810A81ED010AD0ED020A92ED001AA5
:1027E00091ED020A00EE810A81ED020A70470000B5
:1027F0002DE9F0478AB0002468462421FDF731FD19
:102800004B48E946B7EE000ADFF828A190ED0A1A16
:1028100071EE400A4DE000BF01EB011001EB4106F3
:1028200000EBC005002009EB86080AEBC50C00BFD1
:1028300000EE104A00EBC00202EB0012B8EE402A94
:10284000F8EE401AB8EE400A0CEB021230EEC22A43
:1028500070EEE11A70EEC02A08EB8003BCEEC20AEB
:10286000FCEEE11ABCEEE22A10EE105A11EE906A6C
:1028700012EE107AADB2B6B202EB8505BFB295ED9D
:10288000020A02EB860502EB870285ED030A93ED4F
:10289000000AD2ED031A401C80B230EE210A032850
:1028A00083ED000AC4D3491C89B20329B4D3641C44
:1028B000A4B24FF0000100EE104AB8EE400AF4EE68
:1028C000C00AF1EE10FAA7DC4C46554601EB0110A8
:1028D00001EB410300EBC002002004EB830705EB92
:1028E000C20200BF00EBC00602EB800306EB00163D
:1028F00093ED000A02EB061C07EB80068CED030A41
:10290000D6ED000A401C03F5806330EE800A80B2E9
:10291000032886ED000AC0EE010AC3ED2F0AE1D3B9
:10292000491C89B20329D1D30AB0BDE8F087000061
:1029300064080020B08D012090ED001AD1ED001A3E
:10294000D0ED016A91ED010A21EE211A90ED025AB3
:1029500090ED032AD1ED020A06EE801A90ED067A78
:1029600022EE212A90ED046A67EE211AD2ED002AA8
:1029700005EE201AD3ED003AD0ED075A06EE002AF4
:10298000D0ED054A45EE801A41EE232A90ED084A23
:102990009FED0D3A04EEA02AC2ED002A44EE201A63
:1029A000D2ED010A93ED001A42EE010A31EE830ADC
:1029B000C2ED010A93ED001AD2ED020A40EE010ABF
:1029C000C2ED020A70470000CDCC1C4170B51B4D12
:1029D0004FF4FA712868401C2860B0FBF1F201FB4B
:1029E0001200002828D1164CA16B8847A16B01204A
:1029F0008847A16B0C208847A16B0D2088471148A0
:102A0000006890ED050A10EE100AB0F17E5F03D069
:102A10000D492869884205DDA16B0E208847A16B0E
:102A20000F2006E0B5EEC00AF1EE10FA04D1A16B5A
:102A30000B20BDE87040084770BD0000709E01206B
:102A400008000020D407002000803B450B48416867
:102A5000491C416000EE101A0949B8EE400AD1ED58
:102A6000010AB4EEE00AF1EE10FA05DB0021416044
:102A70000448816B0420084770470000709E0120C5
:102A8000446B012008000020704770470148816BAB
:102A90001220084708000020704700002DE9FC4183
:102AA000B74C0F46E06F8047B64D0120B64E03236A
:102AB0001A463946CDE90005D6F80CC0201DE0477E
:102AC0009FEDB20AA5F55871F7EE000A81ED000AF4
:102AD00081ED010A81ED020AC1ED030A81ED040ACC
:102AE00081ED050A81ED060A81ED070A81ED080AEC
:102AF00081ED090A81ED0A0A81ED0B0A81ED0C0ACC
:102B0000C1ED0D0A81ED0E0A81ED0F0A81ED100A6B
:102B100081ED110A81ED120A81ED130A81ED140A8B
:102B200081ED150A81ED160AC1ED170A81ED180A2B
:102B300081ED190A81ED1A0A81ED1B0A81ED1C0A4B
:102B400081ED1D0A81ED1E0A81ED1F0A81ED200A2B
:102B500081ED210A95ED021A01F52270F1EE410A8C
:102B6000C1ED220AD5ED010AC1ED230A81ED240A47
:102B700081ED250A81ED260A81ED270A81ED280ADB
:102B800081ED290A81ED2A1A81ED2B0AF1EE601AF6
:102B9000D5ED000AB1EE601A81ED2C1A81ED2D0AF7
:102BA00081ED2E0A81ED2F0A81ED300A81ED310A87
:102BB00081ED320AC1ED331AC1ED340A81ED350AD7
:102BC00081ED360A81ED370A81ED380A81ED390A47
:102BD00081ED3A0A81ED3B0A81ED3C0A81ED3D0A27
:102BE00081ED3E0A81ED3F0A81ED400A81ED410A07
:102BF00081ED420A81ED430A81ED440A81ED450AE7
:102C000081ED460A81ED470A81ED480A81ED490AC6
:102C100081ED4A0A81ED4B0A81ED4C0A81ED4D0AA6
:102C200081ED4E0A81ED4F0A81ED500A80ED000AD8
:102C300080ED010A80ED020A80ED030A80ED040AAE
:102C400080ED050A80ED060A80ED070A80ED080A8E
:102C500080ED090A80ED0A0A80ED0B0A80ED0C0A6E
:102C600080ED0D0A80ED0E0A80ED0F0A80ED100A4E
:102C700080ED110AD4ED010AC0ED120AB1EE601A1E
:102C8000D4ED020AC0ED130AF1EE601AD4ED030A86
:102C9000C0ED140A80ED150A80ED160A80ED170AC2
:102CA000B1EE602AD4ED040AC0ED180AF1EE602AF4
:102CB000D4ED050AC0ED190AB1EE603AD4ED060A6A
:102CC000C0ED1A0A80ED1B0A80ED1C0A80ED1D0A7A
:102CD000F1EE603AD4ED070AC0ED1E0AB1EE604A8B
:102CE000D4ED080AC0ED1F0AF1EE604AD4ED090ADE
:102CF000C0ED200A80ED210A80ED220A80ED230A32
:102D000080ED240A80ED250A80ED260A80ED2A0A4E
:102D1000B1EE605A80ED2B0A80ED2C0A80ED300A6E
:102D200080ED310A80ED320A00F19C01184C81ECF3
:102D3000031A1831CC30A0F50473C1EC032A092220
:102D4000114680EC034AA0F55570B56994ED000A70
:102D5000A8471048092300901A46756800F50771C6
:102D60000D48A84794ED000AB46902B00548062250
:102D7000A4460A4BBDE8F0410921D838604700005D
:102D8000D4070020388D0120687401200000000065
:102D9000640800202C0400201C8B012070050020FA
:102DA00070B59FED7E1ADFED7E0ADFED7E1ADFED56
:102DB0007E2A9FED7E3A9FED7E0A9FED7E2A7E4D14
:102DC00009217E4E05F2DC5085ED001A85ED011AD1
:102DD00085ED021AC5ED030AC5ED040AC5ED050A25
:102DE000C5ED061AC5ED071AC5ED081AC5ED092A85
:102DF000C5ED0A2AC5ED0B2A85ED0C3A85ED0D3A95
:102E000085ED0E3A85ED0F0A85ED100A85ED110A64
:102E100085ED120A85ED130A85ED140A85ED152A54
:102E200085ED162A85ED172AB26A90479FED640A50
:102E300005F19C04F7EE000A84ED7E0A84ED7F0A1A
:102E400084ED800AC4ED810A84ED820A84ED830A50
:102E500084ED840A84ED850A84ED860A84ED870A70
:102E600084ED880A84ED890A84ED8A0AC4ED8B0A10
:102E700084ED8C0A84ED8D0A84ED8E0A84ED8F0A30
:102E800084ED900A84ED910A84ED920A84ED930A10
:102E900084ED940AC4ED950A84ED960A84ED970AB0
:102EA00084ED980AB26A09212046904795ED0F0AF1
:102EB000062104F5A27020EE000A84ED000A95EDCB
:102EC000100A20EE000A84ED0A0A95ED110A20EEA0
:102ED000000A84ED140A95ED120A20EE000A84ED32
:102EE0001E0A95ED130A20EE000A84ED280A95EDDE
:102EF000140A20EE000A84ED320A95ED150A20EE40
:102F0000000A84ED3C0A95ED160A20EE000A84EDD5
:102F1000460A95ED170A20EE000A84ED500AB26ABF
:102F2000904795ED000A032104F5EA7020EE000AAF
:102F300084ED510A95ED010A20EE000A84ED580A4D
:102F400095ED020A20EE000A84ED5F0A95ED030A72
:102F500020EE000A84ED660A95ED040A20EE000AD0
:102F600084ED6D0A95ED050A20EE000A84ED740AE1
:102F7000B26A904795ED0C0A20EE000A84ED750ABE
:102F800095ED0D0A20EE000A84ED790A95ED0E0A02
:102F900020EE000A84ED7D0A70BD00000AD7A33D33
:102FA00013EBB63A95BFD63335FA0E3C17B7D13886
:102FB000ACC5273789C3E43A6C000020687401204F
:102FC000000000002DE9FC413A4C09223B48032156
:102FD000394B80462569A8473748032636496C385F
:102FE00009231A46CDE90060E5683548A84732480C
:102FF0000923D838032200F16C01CDE90060E568AF
:103000004046A8472C4803232C491A46B438009060
:10301000656824392438A847274A6369903A032110
:10302000A2F124009847254D032323490922C035E6
:10303000903901F12400CDE90065E668B047214EE2
:10304000092703233A4641462846CDE90076D4F8BD
:103050000CC0E047A6F573700090A56809231A48D4
:103060001A463146A847CDE90076E5680923A6F55A
:10307000737013491A46A84725690922A6F5737388
:1030800011463046A847A6F52270009065680923CE
:10309000A0F5A2711A463046A847A46902B0A6F569
:1030A0002270074BA446BDE8F0410922B6EE000AA3
:1030B00011466047687401206C89012000030020DC
:1030C0000801002078860120480600202DE9FC41F7
:1030D000594C0121594D0026594F032394ED140AF0
:1030E00005F525700922B1EE400A85ED990A94EDA7
:1030F000150AB1EE400A85ED9A0A94ED160AB1EE72
:10310000400A85ED9B0ACDE90010D7F80CC0A0F16C
:1031100030012430E047DFED4B1A94ED110AD5ED74
:10312000A50A4948032330EE200A00F10C0200F101
:10313000240184ED110A94ED120AD5EDA60A30EEB1
:10314000200A84ED120A94ED130AD5EDA70A30EE99
:10315000200A84ED130A94ED140AD5EDA80A30EE86
:10316000200A84ED140A94ED150AD5EDA90A30EE73
:10317000200A84ED150A94ED160AD5EDAA0A30EE60
:10318000200A84ED160A94ED0E0AD5EDAB0A30EE56
:10319000200AB1EE602A84ED0E0A94ED0F1A95ED27
:1031A000AC0A31EE001AF1EE402A84ED0F1A94EDCC
:1031B000103A95EDAD1A33EE013AF1EE413A84ED55
:1031C000103AC0ED001AC0ED013A80ED020AC0EDE0
:1031D000070A82EC041A1A46C0ED081A009101464B
:1031E0001648BD68C038A847174D0320034602465D
:1031F0004835211DCDE90005FF68A5F12400B84739
:1032000005EB8601701C91ED000A04EB8601C6B245
:10321000092E81ED010AF3D30749D4F8842038310F
:10322000201D90470449D4F8882002B02831201D81
:10323000BDE8F04110470000D4070020080100203D
:103240006874012000000000448D01202DE9FC413C
:103250002C4C09222D4811462B4B07462569A847BF
:103260002B48092528492B462A46CDE90050E66817
:103270002848B0472848092325491A46CDE9005077
:10328000E6683846B047204906200346D839092267
:10329000CDE900012149E66801F549700746B047CC
:1032A0002669062209211E4B3846B047164E0623D2
:1032B0001B490922A1F5BD60CDE90056E568A84784
:1032C0001448092300901A46656830461049A847FB
:1032D000256909220E4B11460E48A847009609237E
:1032E00065681A460A490B48A847A46902B03046E7
:1032F000084BA446BDE8F0410922B6EE000A11468B
:103300006047000068740120AC8201202C0400207A
:10331000F083012008010020348501204C020020A8
:10332000BC8701201FB500206946009001900290E3
:103330000390752000F0D4F8002069460A5C712AD9
:103340000CD1401CC0B20828F8D3002002A900F01C
:1033500089F8002002A90A5C482A02D0002004B0A3
:1033600010BD401CC0B20828F5D30120F7E70000CB
:10337000012202484021FDF743BB0000000002404B
:103380001CB5FFF7F5FF642002F0AAFB08228DF8B8
:10339000002002218DF8011010208DF802008DF818
:1033A00003108DF80400684600F004F8012800D0EE
:1033B00000201CBD70B58AB0294920220546684608
:1033C000FCF736FF264800246E46001F006809906F
:1033D00028788DF80A0068788DF80800A8788DF8AC
:1033E0000C00E8788DF80E0029799DF82600084336
:1033F0008DF8260006EB440016F81410407800F013
:10340000B9F80A2002F06CFB641CE4B20F2CF1D373
:10341000FFF788FF012802D000200AB070BD0A2003
:1034200002F05EFB002409AD05EB440015F8141012
:10343000407800F02EF80A2002F052FB641CE4B23F
:10344000022CF1D30221262000F094F88C212520B3
:1034500000F090F88821272000F08CF80120DCE7AC
:10346000F860000810B50C460146262000F082F8EE
:103470008C21252000F07EF88121272000F07AF8A9
:10348000022002F02DFB2146BDE81040492000F04B
:1034900027B87CB50D4600210C46009101910146EC
:1034A000322000F067F80C21312000F063F833205F
:1034B000294600F05FF88021342000F05BF83620C8
:1034C000694600F00DF89DF80000400603D4601C2A
:1034D000322CC4B2F3D3012002F002FB7CBD000009
:1034E0007CB50B4D00220E46044640212846FDF7D0
:1034F00087FA44F08000694600F010FEFF20314654
:1035000000F00CFE012228464021FDF779FA7CBD2F
:10351000000002402DE9FC41DFF8548000241546EC
:103520000F464021064622464046FDF769FA46F01E
:103530008000694600F0F2FD6E460FE0FF2069460C
:1035400000F0ECFD3919002005FB00F2335C401C53
:10355000C0B208285354F7D3641CE4B2AC42EDD394
:10356000012240464021FDF74BFABDE8FC810000F6
:10357000000002407CB50C4C00220E46054640215E
:103580002046FDF73DFA6946284600F0C7FD69462A
:10359000304600F0C3FD012220464021FDF730FAFD
:1035A0000A2002F0B3FA7CBD00000240094808B5C9
:1035B000016841F400110160016801F400110091FB
:1035C000016841F480010160006800F4800000900F
:1035D00008BD00003038024040482DE9F04701683E
:1035E00086B041F010010160016801F01001059101
:1035F000016841F002010160016801F002010591DA
:10360000016841F004010160016801F004010591C5
:10361000016841F001010160016801F001010591BB
:10362000016841F08001016000680022DFF8B0808D
:103630005C2100F0800005904046FDF7E1F9DFF8DD
:10364000A490002220214846FDF7DAF9DFF898A07F
:1036500000224FF4C2515046FDF7D2F901225046E4
:10366000A021FDF7CDF90124694603255C20CDE9B1
:103670000004CDE902454046FDF7D6F8002669462C
:103680004FF47F400294CDE900064846FDF7CCF8A0
:1036900020276946CDE90074CDE902454846FDF78B
:1036A000C3F800976946CDE901644046FDF7BCF8D0
:1036B000E8026946CDE90004CDE902455046FDF730
:1036C000B3F8E0206946CDE9000450460294039423
:1036D000FDF7AAF806B0BDE8F087000030380240D8
:1036E0000010024000040240000002400022252099
:1036F000114610B5FDF7F0F92520FDF7E1F900229C
:1037000004210C20FDF7E8F90C20FDF7D9F900227F
:1037100005210E20FDF7E0F90E20FDF7D1F900227A
:1037200001211920FDF7D8F91920FDF7C9F9002268
:1037300003212720FDF7D0F92720FDF7C1F900224A
:1037400006213620FDF7C8F93620FDF7B9F9002229
:1037500002214620FDF7C0F9BDE810404620FDF7E4
:10376000AFB900001848D72210B51649002488B018
:1037700080E816000923C0E9033444618461FEF740
:10378000D5F818B1422111A001F0EFFA4FF48050A2
:1037900003900D4803A9FEF72FF918B148210BA09B
:1037A00001F0E3FA08486946009401940294FEF798
:1037B00091F8002803D0502104A001F0D6FA08B0F7
:1037C00010BD0000000001409C7401202E2E2F53DC
:1037D00072632F74696D2E630000000030B51848C5
:1037E0000024611E154D87B06B23C0E902410461BE
:1037F00080228261C0E90053FEF798F818B1622177
:1038000010A001F0B2FA4FF4805003900C4803A9C5
:10381000FEF7F2F818B168210AA001F0A6FA0848EC
:10382000694600940294FEF755F8002803D06F21F2
:1038300004A001F09AFA07B030BD0000000C00406F
:10384000DC7401202E2E2F5372632F74696D2E634A
:10385000000000003EB510486321002440F23742CA
:103860000C4BC0E902418461C0E90032FEF75EF80A
:1038700018B17F2109A001F078FA07486946009441
:103880000294FEF727F8002803D0862103A001F058
:103890006CFA3EBD001000401C7501202E2E2F53E7
:1038A00072632F74696D2E63000000000F480021C1
:1038B00010B50F4C4FF400430B4A02600C222468F1
:1038C000C0E90141C160C0E90412C0E90613016208
:1038D0004162FEF7CDFA002805D0BDE810404A212C
:1038E00004A001F042BA10BD001001405C75012037
:1038F000000000202E2E2F5372632F757361727497
:103900002E63000070B50F4800214FF4E1340C4DD8
:103910000C23E204C0E90221C0E904138161C16102
:1039200001624162C0E90054FEF7A2FA002805D006
:10393000BDE870405F2104A001F017BA70BD00001F
:1039400000440040CC7501202E2E2F5372632F753A
:10395000736172742E6300000F48002110B50F4C84
:103960004FF400430B4A02600C222468C0E9014175
:10397000C160C0E90412C0E9061301624162FEF7AA
:1039800077FA002805D0BDE81040742104A001F0AA
:10399000ECB910BD004800403C7601200400002036
:1039A0002E2E2F5372632F75736172742E63000075
:1039B000F0B504460D46059E0020002100BF1BE027
:1039C000002115E000FB031704EB870797ED000AC1
:1039D00000FB031705EB8707D7ED000A30EE200A3E
:1039E00000FB031706EB870787ED000A4F1CB9B2EF
:1039F0009942E7DB471CB8B29042E1DBF0BD70B5FD
:103A000004460D460020002100BF13E000210DE018
:103A1000884209D100FB021604EB860696ED000AE7
:103A200003EB800686ED000A4E1CF1B29142EFDBFB
:103A3000461CF0B2A842E9DB70BD000010B5034699
:103A4000002000221EE0002218E090420AD1B7EECA
:103A5000000A00FB01F403EB840404EB820484ED10
:103A6000000A09E09FED090A00FB01F403EB84045E
:103A700004EB820484ED000A541CE2B28A42E4DBC7
:103A8000441CE0B28842DEDB10BD000000000000F4
:103A9000704770B505460C460020002100BF11E0BC
:103AA00000210CE001FB020605EB860696ED000AFC
:103AB00000FB041603EB860686ED000A491CA142B2
:103AC000F0DB401C9042EBDB70BD00002DE9F041C3
:103AD00006460F469446DDE90645002000210022F7
:103AE00000BF35E000212DE09FED1B0A00FB04180C
:103AF00005EB880888ED000A00221DE000FB041891
:103B000005EB880898ED000A00FB032806EB8808FF
:103B1000D8ED000A02FB041807EB880898ED001A9C
:103B200000EE810A00FB041805EB880888ED000A06
:103B300002F1010808F0FF029A42DFDB01F10108FF
:103B400008F0FF01A142CFDB00F1010808F0FF00FF
:103B50006045C7DBBDE8F0810000000070B5044699
:103B60000D460020002100BF15E000210FE000FB02
:103B7000021604EB8606D6ED000A60EE800A00FB12
:103B8000021603EB8606C6ED000A4E1CB1B2914246
:103B9000EDDB461CB0B2A842E7DB70BD2DE9F04773
:103BA0002DED028B04468846154600260027B146B7
:103BB0009FED170AB0EE408A00BF19E0002713E01E
:103BC00006FB057000F0FF0904EB8900D0ED000A48
:103BD00004EB890090ED001AB0EE480A00EE810A6D
:103BE000B0EE408A781CC7B2AF42E9DB701CC6B2A7
:103BF0004645E3DBB7EEC80A01F066FCB7EEC00B42
:103C0000B0EE408AB0EE480ABDEC028BBDE8F0870A
:103C10000000000070B50C46002100230025DFEDF8
:103C2000110AB0EE600A00BF18E0002312E001FBA9
:103C30000236F5B200EB850696ED001A00EB85061C
:103C4000D6ED001AF0EE400A41EE210AB0EE600A0D
:103C50005E1CF3B29342EADB4E1CF1B2A142E4DBFC
:103C600070BD000000000000F0B5044615460020BD
:103C700000229FED7C1AB0EE410A9FED7A1AF0EE19
:103C8000410A00BF31E000222AE08A420EDA00FB3E
:103C9000012304EB830393ED001A430003FB01238C
:103CA000714E06EB830383ED001A17E00B18934265
:103CB0000AD1B7EE001A430003FB01236A4E06EB5C
:103CC000830383ED001A09E09FED661A430003FBAE
:103CD0000123654E06EB830383ED001A531C9AB251
:103CE0004B009342D1DC431C98B28842CBDB0020CE
:103CF00059E0002253E082424FD0430003FB01030E
:103D0000594E06EB830393ED001AB5EEC01AF1EE9F
:103D100010FA12D0530003FB010306EB830393ED6B
:103D2000001A430003FB010306EB8303D3ED001AE3
:103D300081EE212AB0EE420A0DE0530003FB01039D
:103D4000494E06EB830393ED001ADFED481A81EE2E
:103D5000212AB0EE420A00231CE0460006FB013691
:103D6000414F07EB860696ED001A21EE001AF0EEA1
:103D7000410A560006FB013607EB860696ED001A4F
:103D800031EE601A560006FB013607EB860686ED1B
:103D9000001A5B1C4E009E42DFDC531C9AB28A4222
:103DA000A9DB431C98B28842A3DB00203CE043001F
:103DB00003FB01032C4E06EB830393ED001AB0EED8
:103DC000410A00222BE0B5EEC00AF1EE10FA11D044
:103DD000430003FB0123244E06EB830393ED001AFB
:103DE000C1EE001A430003FB012306EB8303C3ED7E
:103DF000001A12E0430003FB01231B4E06EB830372
:103E000093ED001ADFED191A81EE212A430003FB1E
:103E1000012306EB830383ED002A531C9AB24B0067
:103E20009342D0DC431C98B28842C0DB002016E0ED
:103E3000002210E0430003FB01230B440A4E06EB73
:103E4000830393ED001A00FB012305EB830383ED4D
:103E5000001A531C9AB28A42ECDB431C98B2884287
:103E6000E6DBF0BD00000000909E012095BFD63338
:103E7000F0B504460D46059E0020002100BF1BE062
:103E8000002115E000FB031704EB870797ED000AFC
:103E900000FB031705EB8707D7ED000A30EE600A39
:103EA00000FB031706EB870787ED000A4F1CB9B22A
:103EB0009942E7DB471CB8B29042E1DBF0BD00005D
:103EC000F0B5074614461D469FED751AB0EE410A3F
:103ED0009FED731AF0EE410A4E1E00222EE00020E4
:103EE00026E0824210D1B7EE001A02FB010C04EB6F
:103EF0008C0C8CED001A9FED6A1A02FB010C05EB8D
:103F00008C0C8CED001A0FE09FED651A02FB010C82
:103F100005EB8C0C8CED001A9FED611A02FB010C75
:103F200004EB8C0C8CED001A00F1010C0FFA8CF0F4
:103F30008842D6DB02F1010C0FFA8CF28A42CEDB0A
:103F400006FB016C07EB8C0C9CED001A06FB016C68
:103F500005EB8C0C8CED001A002217E002FB016CC3
:103F600007EB8C0C9CED001A06FB016C05EB8C0C2E
:103F7000DCED001A81EE212A02FB016C04EB8C0CB3
:103F80008CED002A02F1010C0FFA8CF28A42E5DB7B
:103F9000881E81E000F1010C0FFA8CF31DE003FB99
:103FA000013C05EB8C0C9CED001A00FB013C04EB82
:103FB0008C0CDCED001A61EE211A00FB013C04EBD5
:103FC0008C0C9CED002AB0EE601A01EE821AF0EE25
:103FD000410A03F1010C0FFA8CF38B42DFDB00FB8B
:103FE000010C07EB8C0C9CED001A31EE601A00FB03
:103FF000010C05EB8C0C8CED001A9FED291AF0EEEC
:10400000410A002242E000F1010C0FFA8CF31DE09E
:1040100003FB013C05EB8C0C9CED001A02FB013C00
:1040200004EB8C0CDCED001A61EE211A00FB013C64
:1040300004EB8C0C9CED002AB0EE401A01EE821AC3
:10404000B0EE410A03F1010C0FFA8CF38B42DFDB77
:1040500002FB010C07EB8C0C9CED001A31EE401AB0
:1040600000FB010C05EB8C0CDCED001A81EE212A23
:1040700002FB010C04EB8C0C8CED002A9FED081A5E
:10408000B0EE410A02F1010C0FFA8CF28242BADB67
:10409000A0F1010C0FFA8CF00028BFF67BAFF0BD49
:1040A00000000000FEE77047090700284FEA116191
:1040B00006DA00F00F0000F1E02080F8141D7047D0
:1040C00000F1E02080F800147047704770B50D4D86
:1040D0000D480E4C95ED050A0D4980ED0A0A6268FF
:1040E000A1F599609047E06880470A48406880479A
:1040F0006878012805D120698047A068BDE8704034
:10410000004770BDA0070020640800208C07002035
:1041100078920120C0070020704770472DE9F041D8
:104120002C4F01220D46064680213846FCF768FCDC
:104130006420401E0028FCDC00244FF063080022AD
:1041400038468021FCF75CFC4046401E0028FCDC21
:10415000C4F1070026FA00F0C00701D0012200E0F8
:10416000002238462021FCF74BFC0020421C295C31
:1041700049002954D0B20828F8D317490020174A1B
:104180000968C1F3072111702A5C00F1010C21FAC2
:1041900000F303F001031A432A540CF0FF0008282F
:1041A000F2D3012238468021FCF72AFC0920401E68
:1041B0000028FCDC641CE4B2082CC0D30122384681
:1041C0008021FCF71DFC1320401E0028FCDCBDE80C
:1041D000F081000000000240100402409C09002011
:1041E000704700002DE91040FFF7CAF80128FBD105
:1041F00010BD0000642010B501F072FCFFF7C0F89C
:104200000249034809688160416010BD240C0040E8
:104210009C0900202DE9F04FADB0B0216846FCF7B5
:1042200020F80024694616223B20FFF773F9DFF8D7
:10423000FCB04FF4004A3E4FE9460BF1B00300BF1B
:1042400004EB440202EBC405002003EB85060BEBF4
:104250004502410001EB450C39F80C1049BA5145B3
:1042600022F8101003D3A1F5FE41FF3902E047F612
:10427000FF7C614422F8101089B2A1F5FE41FF399C
:1042800000EE101A07EB800800F1010CB8EEC00A2E
:10429000D8ED000A06EB80080CF0FF0020EE200AA3
:1042A0000B2888ED000AD4D3641CE4B2082CC7D3D1
:1042B000204D0020204EB5EE000AF6EE001A03EB6A
:1042C000800105EB800291ED002AD1ED0B2AD1EDA2
:1042D000160A91ED211A32EE222A06EB8007441CC1
:1042E000E0B272EE200A0B2870EE810A60EE800ABE
:1042F000C2ED000A91ED2C2AD1ED372A91ED423A18
:1043000091ED4D1A32EE222A32EE032A32EE011AD4
:1043100021EE001A82ED0B1A70EE810A60EEA10AFE
:10432000C7ED000ACBD32DB0BDE8F08F089C01206B
:10433000A8090020189E0120D40900200148D0F8C7
:1043400068010047D4690120FFF764BF10B5FCF78E
:1043500063FBBDE81040FDF7B7BA00002D4830B54B
:10436000B7B0016841F080510160006800F08050F2
:1043700036902948016841F44041016000680224F8
:104380000A2300F44040369001202C934FF4A021E2
:1043900082054FF4D875CDE92A42CDE92D542F94EA
:1043A000CDE9240124A8FDF7B7F800B1FEE7FCF73A
:1043B000C5FB00B1FEE74FF480524FF4A051002539
:1043C000CDE9341231AA0F20072182E8310031A84B
:1043D000FCF778FF00B1FEE74FF4E07011951295FD
:1043E000139500906846FCF7DFFB00B1FEE7FDF790
:1043F0001BF84FF47A71B0FBF1F0FDF752FA04208C
:10440000FDF742FA0022501E1146FCF765FB37B05B
:1044100030BD00004038024000700040104A30B506
:104420001048146800210F4B44F4700414600833E2
:1044300005680D4A0D4C45F00105056019600368DB
:10444000051D1340074A03600C322C600568E30524
:10445000034C25F480250560803C1160236030BD4D
:1044600088ED00E000380240FFFFF6FE1030002427
:10447000D82010B501F01EFBFFF760FF1049DA20CD
:10448000012288610F491048FDF732FE0E4800688E
:10449000016841F0200101600A48203800F25C41C7
:1044A000B0F85C280948FDF7D9FD0948FDF797FAEF
:1044B0000848FDF787FABDE810400748FDF78FBAB6
:1044C000709E0120EC7701205C7501203C76012074
:1044D0009C740120DC7401201C7501200148FDF74B
:1044E0000ABB00009C7401200148FDF704BB0000DA
:1044F0001C750120F0B5274B4FF0804E264D026809
:104500009842264E264F274C09D0704507D0A84226
:1045100005D0B04203D0B84201D0A04205D1D1F8B5
:1045200004C022F070024CEA020298421BD070458F
:1045300019D0A84217D0B04215D0B84213D0A0422B
:1045400011D0194DA8420ED0184DA8420BD0184DCD
:10455000A84208D0174DA84205D0174DA84202D056
:10456000164DA84203D1CD6822F440722A434D690A
:1045700022F080022A43026098428A68C2620A6876
:10458000826201D0A04201D1096901630121416128
:10459000F0BD0000000001400004004000080040A1
:1045A000000C004000040140004001400044014074
:1045B0000048014000180040001C0040002000405E
:1045C00042EA032283680A4323F47F410A4382605C
:1045D0007047826822F070020A4342F0070181604E
:1045E000704710B5036A046A23F00A0324F001043B
:1045F000046284690B4324F0F00141EA02118161F5
:10460000036210BD10B5036A23F0100303628369CF
:10461000046A23F4704324F0A00443EA0232826166
:1046200044EA0111016210BD4448002370B5444AB8
:104630000121037007240172424BD2F8605102221B
:104640004560417280F85440082480F85C20DD6D9C
:10465000856580F85D2080F860403B4C80F86820DC
:104660002568092445660A2580F8692080F86C4091
:10467000364C80F874202668354C066780F8752023
:1046800080F878500B2580F880202668C66780F86F
:1046900081200C2280F8845080F88C101D6EC0F8A8
:1046A000885080F88D1080F8902080F898105D6E0A
:1046B000C0F8945080F8991080F89C200E2280F861
:1046C000A4109D6EC0F8A05080F8A51080F8A82016
:1046D0000F2280F8B0109B6FC0F8AC3080F8B1109A
:1046E00080F8B42080F8BC10A2681A4CC0F8B8203A
:1046F00080F8BD100720216B8847216B0820884770
:10470000216B09208847216B00208847216B0C20F2
:104710008847216B0D208847216B0B208847216B30
:104720000E208847A16B07208847A16B0820884787
:10473000A16B0920BDE8704008470000CC80012033
:10474000D4690120D4070020687401208C07002060
:10475000C00700200800002000EB4001044800EBE7
:104760008100017A022901D0022101727047000004
:10477000CC8001200349CA8D21F81200C88D401C4D
:10478000C8857047080000200B4A30B50024D38D3F
:104790002146D4850CE000BF32F81140844205D098
:1047A000D58D22F81540D48D641CD485491C89B25E
:1047B0009942F1D330BD0000080000202DE9F041FE
:1047C00000271D4D1D4E4FF001083C462EE0AC87E2
:1047D00035F8140000EB400006EB8000417A39B157
:1047E000012902D002291FD10EE0017A02291BD132
:1047F00007724068804735F8141001EB410106EB61
:10480000810181F808800FE0017A02290CD107723A
:104810004068804735F81400032100EB400206EBA6
:1048200082021172696B8847641CA4B2E88DA042B1
:10483000CDD8BDE8F081000008000020CC80012028
:1048400090F82410C90706D00168836A4A6822F4E8
:1048500000321A434A6090F82410890706D501688F
:10486000C36A4A6822F480321A434A6090F82410DE
:10487000490706D50168036B4A6822F480221A436F
:104880004A6090F82410090706D50168436B4A680E
:1048900022F400421A434A6090F82410C90606D553
:1048A0000168836B8A6822F480521A438A6090F808
:1048B0002410890606D50168C36B8A6822F4005269
:1048C0001A438A6090F82410490611D50168036CD8
:1048D0004A6822F480121A434A60016CB1F5801FC5
:1048E00006D10168436C4A6822F4C0021A434A6048
:1048F00090F82410090606D50168826C486820F4F7
:10490000002010434860704738B500250446C5664E
:10491000FCF77CF803462068006800070BD56FF0B1
:104920007E400090002220464FF4001100F0DEF996
:1049300008B1032038BD202084F8690084F868504D
:1049400084F86A00002038BD10B5806B0021A0F803
:104950005A10A0F85210FDF7CEF910BD10B5846BB7
:104960000021A4F85A10A4F8521094F869002128E4
:1049700006D120688068000602D5204600F044F881
:1049800094F86A00222806D120688068400602D583
:10499000204600F02BF8E06E40F01000E066204664
:1049A000FDF7A9F910BD10B501680968806BC9054C
:1049B00014D40021A0F85A10202201680B6823F4B7
:1049C00080730B6001688B6823F001038B600168C2
:1049D0008B6823F040038B6080F86A20FDF7D0FBE2
:1049E00010BD10B5806BFDF7E7FB10BD01682022FC
:1049F0000B6823F490730B6001688B6823F001034C
:104A00008B6080F86A207047016820220B6823F0D1
:104A1000C0030B6080F86920704710B590F86A10E9
:104A2000B0F85C202229016805D0886940F00800B0
:104A30008861022010BD8368B3F5805F01D10369EE
:104A400073B14B6A416D13404A1C42650B70B0F85C
:104A50005A10491E0904090CA0F85A1008D016E093
:104A60004B6A416D13400B80416D891C4165EEE737
:104A7000016820220B6823F490730B6001688B6837
:104A800023F001038B6080F86A20FDF779FB00209A
:104A900010BD00002DE9F04704468068874B884F21
:104AA0002668D4E90415E2690843D6F800C010214D
:104AB00015430022284315460CEA030C814B4CEAAF
:104AC000000CC6F800C04FF400492068D4F80CC0B0
:104AD000466826F4405646EA0C0646602668D4F836
:104AE0002080A069D6F808C040EA08002CF4306C99
:104AF0004CEA000CC6F808C02068B8420AD11B680E
:104B000013F0030352D0012B7AD0022B76D0032B63
:104B100079D177E06C4EB0420AD11B6813F00C03D8
:104B20006AD0042B6CD0082B68D00C2B6BD169E0B9
:104B3000664EB0420AD11B6813F030035CD0102BD4
:104B40005ED0202B5AD0302B5DD15BE0604EB0425E
:104B50000AD11B6813F0C0034ED0402B50D0802BDD
:104B60004CD0C02B4FD14DE05A4EB0420DD11B68F6
:104B700013F4407340D0B3F5807F41D0B3F5007F8C
:104B80003CD0B3F5407F3ED13CE0534EB0420FD114
:104B90001B6813F4406309D0B3F5806F30D0B3F5D0
:104BA000006F2BD0B3F5406F2DD12BE001212AE00F
:104BB0004A4EB0420DD11B6813F440531CD0B3F5DC
:104BC000805F1DD0B3F5005F18D0B3F5405F1AD1F8
:104BD00018E0434EB04216D11B6813F440430BD08B
:104BE000B3F5804F0CD04B4508D0B3F5404F0AD1F8
:104BF00008E005E002E0FFE7002104E0022102E016
:104C0000042100E00821E6694E452AD109291FD276
:104C1000DFE801F00508141E171E1E1E1A00FCF71F
:104C200009FC01E0FCF71EFC0146D4F80400490031
:104C300001EB5001B1FBF0F082B20AE02949606853
:104C4000F6E7FCF727FCEFE760684FF48031EFE709
:104C50000125216822F00F00C2F342021043C86010
:104C600028E0092925D2DFE801F005080B241024EB
:104C700024241C00FCF7DEFB09E0FCF7F3FB06E054
:104C80006168194A02EB51020EE0FCF703FC014691
:104C9000D4E9002001EB5001B1FBF0F080B2D0600C
:104CA00008E0616809EB5102B2FBF1F189B2C16021
:104CB00000E001252846BDE8F0870000F369FFEF1A
:104CC000001001409038024000440040004800407D
:104CD000004C0040005000400014014000780040AB
:104CE000007C00400048E8010024F4002DE9F04178
:104CF000984617460E460446069D1DE0681C1BD0CC
:104D00002DB1FBF783FEA0EB0800A84214D3216865
:104D1000202000220B6823F4D0730B6021688B687D
:104D200023F001038B6084F8690084F86A00032093
:104D300084F86820BDE8F0812068C06936EA000088
:104D400004D00020B842D9D00020F3E70120F9E7D1
:104D50000148FCF7D1BF00005C7501200148FCF759
:104D6000CBBF00003C760120FEE7FEE703B40198CC
:104D70004100009850EAC12018BF04204A0D18BF16
:104D800040F0010040F2FF72B2EB515F08BF40F00B
:104D90000200012808BF052002B070470000000093
:104DA00070B56B482DED020B2DED0A8B82B00D9D79
:104DB00025F000449FED68BB9FED699B84422EDB8C
:104DC000A4F140510C98A1F17F6108430FD06648CF
:104DD000844202DC18D10C98B0B19DED0C0B02B0EE
:104DE000BDEC0A8B02B0BDE8704000F025BE9DED21
:104DF0000C0B20EE0B0B9DED0C1B01EE090B02B012
:104E0000BDEC0A8B02B070BD012000F045FE02B07F
:104E1000BDEC0A8B02B0BDE8704000F015BE5348EF
:104E20009FED538B844230DA9DED0C0BB4F1795F2A
:104E30000ADA51EC100BFFF799FF042808BF00F0C5
:104E40000FFE9DED0C0BDAE720EE009BB0EE490B58
:104E500049480621784400F063FD20EE09ABB0EE2E
:104E6000490B46480421784400F05AFD09EE008BB6
:104E70008AEE080B8DED000B9DED0C0B9DED0C1BD0
:104E80009DED002B01EE020BB9E79DED0C0B51ECF3
:104E9000100B00F0B7FE41EC100B38EE400B9FED0D
:104EA000381B8DED000B20EE01ABB0EE4A0B3648FF
:104EB0000621784400F034FD20EE0ACBB0EE4A0B18
:104EC00032480421784400F02BFD0AEE008B51ECAF
:104ED0001A0B01F0C7F841EC110B2D489FED2E2B5A
:104EE000A0420EDC8CEE080B8DED000B9DED003B1F
:104EF000B0EE410B01EE030B10EE029B3BEE490BB3
:104F000021E08DED001B002000909DED000B9DED3C
:104F1000003B00EE43AB31EE000B8AEE003B8CEE23
:104F2000080B03EE429B21EE021B11EE009B9DED50
:104F3000003B9FED1B1BB0EE410B03EE420B39EE25
:104F4000400B31EE400B002DD8BFB1EE400B56E7C1
:104F50000000F03F00000000182D4454FB21F93FF1
:104F6000075C143326A6913C0000F07F0000E03F70
:104F7000000000000000F03FE0120000FE12000000
:104F8000000000000000E03F82120000A0120000BC
:104F90003333EF3F0000000000000000000000403D
:104FA000182D4454FB21E93F70B565482DED020BE7
:104FB0002DED048B059D25F00044A04218DC6148CE
:104FC000844202DC0AD1049840B19DED040BBDEC93
:104FD000048B02B0BDE8704000F02EBD002DCCBFA8
:104FE0009FED590B9FED5A0BBDEC048B02B070BDC9
:104FF0005948A04215DD5948A042D8BF4FF0FF34B0
:1050000055DD9DED040B51EC100BFFF7AFFE0428AE
:1050100008BF00F025FD9DED040BBDEC048B02B034
:1050200070BD9DED040B51EC100B00F0EBFDCDE9D4
:1050300004014B489FED4C0BA0421CDD4C48A042A4
:105040000BDD9DED042B00249FED4B1B12EE010B9D
:1050500032EE011B80EE012B27E09DED041B0124A5
:1050600031EE401B9DED042B32EE000B81EE002B48
:105070008DED042B1BE04248A0420FDD9DED042B7B
:1050800002249FED411B32EE412B9DED043B03EECC
:10509000010B82EE001B8DED041B08E09DED040B5F
:1050A0009FED3B1B032481EE002B8DED042B9DED2A
:1050B000040B20EE009B29EE098BB0EE480B36481E
:1050C0000621784400F02CFC20EE099BB0EE480B42
:1050D00032480521784400F023FC20EE080B002C18
:1050E0000BDA39EE001B9DED040B9DED042B02EE57
:1050F000410BBDEC048B02B070BD2948784400EB35
:10510000C40090ED001B39EE000B9DED042B12EE58
:10511000001B9DED040B31EE400B2248784400EB60
:10512000C40090ED001B31EE400B002DB8BFB1EE76
:10513000400BBDEC048B02B070BD0000000000000D
:10514000000010440000F07F182D4454FB21F93F6B
:10515000182D4454FB21F9BF0000DC3F0000203E25
:105160000000F33F00000000000000000000F03FDE
:105170000000E63F000000000000000000000040CA
:105180000080034000000000000000000000F83F25
:10519000000000000000F0BF2A110000F010000025
:1051A000A81000006810000070B55F4E2DED040BD4
:1051B0002DED028B82B0DDF81CC0DDE905235C42D9
:1051C0002CF000411C4341EAD474049D22F00040BD
:1051D000B44205D86C422C4340EAD474B4420BD993
:1051E0009DED061B9DED040B02B0BDEC028B04B0DF
:1051F000BDE8704000F023BCACF14054A4F17F64E2
:105200001C430BD0022404EAAC7444EAD274054374
:105210009FED478B9FED482B0DD016E09DED040BC5
:1052200051EC100B00F03EFC41EC100B02B0BDEC59
:10523000028B04B070BD002C14BF012C9DED040B3B
:10524000F4D0022C2ED0032C2FD00B439FED3C1B0F
:105250009FED3D0B0AD0B1421DD1B04209D121F0E2
:10526000804120F080400791059014E0002ADDDAAB
:1052700015E0374B7B44002C08BF93ED000BD5D0D5
:10528000012C04BF93ED000BB1EE400BCED0022CED
:1052900008D0032C09D0B0420AD1002AC6DAB0EEF9
:1052A000410BC3E7B0EE480BC0E7B0EE420BBDE7E1
:1052B000401A00153C28C8BF8DED000B17DCBCF16F
:1052C000000FBEBF10F13C0F9FED230B8DED000BC7
:1052D0000DDB9DED041B9DED062B81EE020B51ECC9
:1052E000100B00F08FFC00F0DDFBCDE90001002C7D
:1052F00008BF9DED000B99D0012C0CD09DED001B3B
:105300009FED170B022C31EE400B0CBF38EE400B1B
:1053100030EE480B8AE7019880F0004001909DED47
:10532000000B83E7000000000000F07F0000000099
:10533000182D4454FB210940182D4454FB2109C069
:10534000182D4454FB21F9BF182D4454FB21F93F7B
:10535000D80F000000000000000000000000000066
:10536000075C143326A6A13C10B529499FED261BE6
:105370002DED020B84B0059820F000408842D8BF84
:105380009DED040B2DDD2349884209D1049840B9D5
:105390004FF0010000F080FB00F056FB06B010BD9E
:1053A00005DB9DED040B30EE000B06B010BD68462A
:1053B0009DED040B00F0BCF810F0030004BF9DED60
:1053C000021B9DED000B0CD001280ED09DED021BA1
:1053D0009DED000B022810D0012000F0D9FA06B094
:1053E00010BD00F02DFA06B010BD9DED021B9DED25
:1053F000000B012000F0CCFA01E000F021FAB1EE40
:10540000400B06B010BD00000000000000000000CE
:10541000FB21E93F0000F07F10B529499FED261BD5
:105420002DED020B84B0059820F000408842DCBFCF
:1054300000209DED040B2EDD2249884209D10498FD
:1054400040B94FF0010000F027FB00F0FDFA06B074
:1054500010BD05DB9DED040B30EE000B06B010BD5A
:1054600068469DED040B00F063F810F003000DD0CA
:10547000012814D09DED021B9DED000B022816D0D3
:1054800000F0DEF9B1EE400B06B010BD9DED021B41
:105490009DED000B012000F07BFA06B010BD9DEDE4
:1054A000021B9DED000B00F0CBF906B010BD0120F2
:1054B00000F06EFAE6E700000000000000000000C7
:1054C000FB21E93F0000F07F00B52DED028B83B09A
:1054D000B1EEC08B18EE100A18EE901A8DED008B0D
:1054E000002818BF0120084320F00040C0F17F6071
:1054F00000F1E040C00F14D010EE101A10EE900A28
:105500008DED000B002918BF0121084320F0004059
:10551000C0F17F6000F1E040C00F04BF012000F047
:10552000BBFAB0EE480B03B0BDEC028B00BD00002F
:105530002DE9F14F04462DED020B2DED048B94B0B7
:105540009FED9D0B80ED020B199E9D4826F00045B6
:1055500085420ADC9DED180B002084ED000B14B091
:10556000BDEC048B03B0BDE8F08F96489FED969B91
:105570009FED978BA84225DD97489FED991B9FEDE6
:105580009A2B9DED180B002E0DDD30EE490B854258
:1055900012BF30EE480B30EE410B30EE420B84ED83
:1055A000000B0120DBE730EE090B854212BF30EE25
:1055B000080B30EE010B30EE020B84ED000B4FF0C8
:1055C000FF30CCE78A48A84253DB9DED180B51EC25
:1055D000100B00F017FB41EC100BB0EE401B9FEDE1
:1055E000862B9FED870B01EE020BFDEEC00B10EE3C
:1055F000903A00EE903AB8EEE02BB0EE410B02EE9E
:10560000490B22EE081BDFF800C2290D0120FC44E3
:1056100030EE411B84ED001B03281DD011EE902AB3
:1056200000EB4015113DC2F30A528A1A954213DA73
:10563000B0EE403B0CEB001292ED000B20EE021B93
:1056400033EE410B33EE403B33EE411B92ED023B18
:1056500012EE031B401CDBE7002EA8BF1846BFF666
:105660007EAF94ED000BB1EE400B84ED000B584281
:1056700075E7C6F3130040F4801EC6F30A50A0F28B
:10568000F530471100F01F05C5F12000DDF860B0CE
:10569000139000200890099005200DF1080C5B493B
:1056A000002D07EB0002794408BF51F8221009D001
:1056B00051F8223001EB8201AB404A68139922FA7B
:1056C00001F11943A1FB0E26A1FB0B131A449A42C8
:1056D00034BF0123002303EB06080CEB8003D3E95E
:1056E00001A60E448E4234BF0121002192448A4417
:1056F00011B1924502D903E0924501D2012100E0A7
:105700000021C3E901A641444CF82010011EA0F17C
:105710000100C4DC04989DED050A00F10050810FE2
:105720000498DDED060A80009DED072A01EE100ABF
:10573000B8EEC13BB8EE401B9FED354B21EE041B8C
:10574000B8EE600B9FED344B20EE040BB8EE422B0D
:105750009FED334B22EE042B30EE024B34EE014B27
:1057600034EE034B8DED004B002000909DED004B7F
:1057700034EE433B33EE411B31EE400B32EE401B27
:105780009DED000B9FED282B20EE020B9FED282BAB
:1057900001EE020B9DED001B9FED272B01EE020B8E
:1057A000199810F0004F1CBF4942B1EE400B84ED38
:1057B000000B0846D3E600000000000000000000D7
:1057C000FB21E93F7CD9024000004054FB21F93F16
:1057D0003163621A61B4D03DFB21F93F0000000043
:1057E0000000601A61B4D03D7370032E8A19A33B88
:1057F000FB2139410000000083C8C96D305FE43FE0
:10580000000000000000E03F460C0000DE0B00003E
:10581000000000000000103E000000000000103CEE
:10582000000000000000103A3326A611460B113C80
:10583000182D4454FB21F93D00000054FB21F93D93
:1058400010B52DED040B2DED068B82B0B0EE41AB03
:1058500009989FED299B20F00044B4F1795F0FDA9D
:105860009DED080BBDEEC00B10EE100A002801BF25
:10587000B0EE490B02B0BDEC068B04B008BF10BD02
:105880009DED080B20EE008BB0EE480B1C48062166
:10589000784400F045F820EE080B28EE000B9DED53
:1058A000081B01EE4A0B9FED181B28EE011B184840
:1058B0008442BCBF31EE400B39EE400B16DB15487D
:1058C000A042BCBF9FED142B8DED002B06DBA4F591
:1058D00000100190002000909DED002B31EE421B46
:1058E00039EE422B31EE400B32EE400B02B0BDECF4
:1058F000068B04B010BD0000000000000000F03F67
:105900008C09000000000000000000000000E03FE3
:105910003333D33F0000E93F000000000000D23FD6
:10592000B0EE401B491E00EBC10292ED000B31F0BE
:1059300006020DD0491E00EBC10292ED002BB0EE25
:10594000403BB0EE420B03EE010B31F00602F1D109
:10595000022914D004290AD0062918BF704790EDF7
:105960000A2B00EE012B90ED080B02EE010B90EDDF
:10597000062B00EE012B90ED040B02EE010B90EDD7
:10598000022B00EE012B90ED000B02EE010B704795
:1059900031B504462DED040B2DED068BB0EE419B89
:1059A00007989DED060B20F00040B0F1795F0DDA0D
:1059B00051EC100BFFF7DAF9042808BF00F050F89B
:1059C0009DED060BBDEC068B05B030BD20EE008BC7
:1059D00028EE00ABB0EE480B114805217844FFF7E4
:1059E0009FFF9FED111B8CB19FED112B29EE022B18
:1059F0000AEE402B18EE029B0AEE419B9DED060B32
:105A000030EE490BBDEC068B05B030BD08EE001B37
:105A10009DED060B0AEE010BBDEC068B05B030BD0B
:105A20004009000000000000495555555555C5BFB7
:105A3000000000000000E03F30EE000B704730EE49
:105A4000010B7047000000009FED031B81EE010B6E
:105A5000704700000000000000000000000000008F
:105A60009FED030B20EE000B7047000000000000CC
:105A7000000000000000001002E008C8121F08C16A
:105A8000002AFAD170477047002001E001C1121FBF
:105A9000002AFBD1704700000149086070470000F0
:105AA0009874012010B541EC100BFFF77DFA51EC12
:105AB000100B10BD4FF0E02130B50B69C0084FF658
:105AC000FF7400EB4002C2EBC015044A23F004034C
:105AD0000B6104EAC5041070548030BD98090020A1
